:100000000C942A000C943F000C943F000C943F0089
:100010000C943F000C943F000C943F000C943F0064
:100020000C943F000C943F000C943F000C943F0054
:100030000C943F000C943F000C943F000C943F0044
:100040000C943F000C943F000C943F000C943F0034
:100050000C943F0011241FBECFE5D8E0DEBFCDBF1A
:1000600010E0A0E6B0E0ECE2FCE102C005900D92E9
:10007000A839B107D9F70E94800C0C94140E0C9487
:100080000000EF92FF920F931F937B018C0120E001
:1000900030E040E05FE40E94410388238CF0C80117
:1000A000B70120E030E040E05FE40E94B9010E9427
:1000B000A1039B01AC01205030404040504806C095
:1000C000C801B7010E94A1039B01AC01B901CA019B
:1000D0001F910F91FF90EF900895A0E0B0E0E3E74B
:1000E000F0E00C94DD0DDC012B01FA019C919230C3
:1000F00008F439C1EB018881823008F433C19430AF
:1001000069F4843009F02FC111969C91119789816F
:10011000981709F428C1A0E6B0E025C1843009F49D
:1001200021C18230A9F4923009F01DC19A01AD01BC
:1001300088E0EA010990AE01E90109929E0181502F
:10014000C1F7E201898111969C918923818308C1BD
:10015000923009F407C112962D903C901397EB0151
:100160008A819B811496AD90BD90CD90DC901797BD
:10017000EC80FD800E811F819101281B390BB90194
:1001800037FF04C066277727621B730B6032710547
:100190000CF061C0121613066CF537014801062EEB
:1001A00004C096948794779467940A94D2F721E0D8
:1001B00030E040E050E004C0220F331F441F551FC1
:1001C0006A95D2F721503040404050402E213F21C7
:1001D00040235123211531054105510521F021E02E
:1001E00030E040E050E079018A01E628F72808294C
:1001F00019293CC0232BD1F1260E371E35014601AB
:10020000062E04C096948794779467940A94D2F744
:1002100021E030E040E050E004C0220F331F441FD3
:10022000551F6A95D2F721503040404050402A2156
:100230003B214C215D21211531054105510521F05E
:1002400021E030E040E050E059016A01A628B728DB
:10025000C828D9280BC0821593052CF01C01AA24AC
:10026000BB24650103C0EE24FF24870111969C91F5
:10027000D20111968C91981709F445C0992339F051
:10028000A80197012A193B094C095D0906C0A6017E
:1002900095012E193F09400B510B57FD08C01182E3
:1002A0003382228224833583468357831DC081E0B5
:1002B00081833382228288279927DC01821B930B5A
:1002C000A40BB50B84839583A683B7830DC0220F3F
:1002D000331F441F551F24833583468357838281F0
:1002E000938101979383828324813581468157814D
:1002F000DA01C9010197A109B1098F5F9F4FAF4F83
:10030000BF4328F30BC0918333822282EA0CFB1C8B
:100310000C1D1D1DE482F5820683178383E0808314
:10032000248135814681578157FF1AC0C901AA2708
:1003300097FDA095BA2F81709070A070B0705695FF
:10034000479537952795822B932BA42BB52B848328
:100350009583A683B7838281938101969383828359
:10036000DF0101C0D201CD01CDB7DEB7E2E10C94CF
:10037000F90DA0E2B0E0EFEBF1E00C94E90D698338
:100380007A838B839C832D833E834F835887E9E058
:10039000EE2EF12CEC0EFD1ECE010196B7010E944F
:1003A000CA048E010F5E1F4FCE010596B8010E9450
:1003B000CA048A8991E089278A8BC701B801AE01F6
:1003C000475E5F4F0E946D000E94F503A096E6E035
:1003D0000C94050EA0E2B0E0E0EFF1E00C94E90D22
:1003E00069837A838B839C832D833E834F835887D5
:1003F000F9E0EF2EF12CEC0EFD1ECE010196B701B7
:100400000E94CA048E010F5E1F4FCE010596B801EF
:100410000E94CA04C701B801AE01475E5F4F0E9447
:100420006D000E94F503A096E6E00C94050EA0E294
:10043000B0E0EDE1F2E00C94DD0D69837A838B830B
:100440009C832D833E834F835887CE010196BE0146
:10045000675F7F4F0E94CA04CE010596BE016F5EA2
:100460007F4F0E94CA049985923088F08989823032
:10047000C8F0943019F4823051F404C0843029F467
:10048000923081F480E690E0C6C0923049F420E0DA
:100490009A858A89981321E02A87CE010996BBC0E4
:1004A000823049F420E09A858A89981321E02A8BCA
:1004B000CE014196B0C02D843E844F8458886D880B
:1004C0007E888F88988CEE24FF248701AA24BB2481
:1004D000650140E050E060E070E0E0E0F0E0C10184
:1004E00081709070892BE9F0E60CF71C081D191D2E
:1004F0009A01AB012A0D3B1D4C1D5D1D80E090E073
:10050000A0E0B0E0E614F7040805190520F481E046
:1005100090E0A0E0B0E0BA01A901480F591F6A1F9E
:100520007B1FAA0CBB1CCC1CDD1C97FE08C081E005
:1005300090E0A0E0B0E0A82AB92ACA2ADB2A3196C6
:10054000E032F10549F0660C771C881C991C569422
:10055000479437942794C3CFFA85EA892B893C893D
:100560008B859C85280F391F2E5F3F4F17C0CA010E
:1005700081709070892B61F016950795F794E79438
:1005800080E090E0A0E0B0E8E82AF92A0A2B1B2BD3
:1005900076956795579547952F5F3F4F77FDE7CF46
:1005A0000CC0440F551F661F771F17FD4160EE0CEE
:1005B000FF1C001F111F21503040403090E05907B0
:1005C00090E0690790E4790760F32B8F3C8FDB01A3
:1005D000CA018F779070A070B07080349105A1052A
:1005E000B10561F447FD0AC0E114F10401051105EC
:1005F00029F0405C5F4F6F4F7F4F40781A8EFE1797
:1006000011F081E08A8F4D8F5E8F6F8F78A383E02A
:10061000898FCE0149960E94F503A096E2E10C94E1
:10062000F90DA8E1B0E0E7E1F3E00C94E90D69838E
:100630007A838B839C832D833E834F83588789E005
:10064000E82EF12CEC0EFD1ECE010196B7010E94A2
:10065000CA048E010F5E1F4FCE010596B8010E949D
:10066000CA048985823040F08989823028F0C70128
:10067000B8010E94420501C08FEF6896E6E00C9435
:10068000050EA8E1B0E0E7E4F3E00C94E90D69831E
:100690007A838B839C832D833E834F83588789E0A5
:1006A000E82EF12CEC0EFD1ECE010196B7010E9442
:1006B000CA048E010F5E1F4FCE010596B8010E943D
:1006C000CA048985823040F08989823028F0C701C8
:1006D000B8010E94420501C08FEF6896E6E00C94D5
:1006E000050EA8E1B0E0E7E7F3E00C94E90D6983BB
:1006F0007A838B839C832D833E834F83588789E045
:10070000E82EF12CEC0EFD1ECE010196B7010E94E1
:10071000CA048E010F5E1F4FCE010596B8010E94DC
:10072000CA048985823040F08989823028F0C70167
:10073000B8010E94420501C081E06896E6E00C9491
:10074000050EACE0B0E0E7EAF3E00C94ED0D698350
:100750007A838B839C83CE010196BE016B5F7F4FB2
:100760000E94CA048D81823061F1823050F1843060
:1007700021F48E81882351F12EC02F81388537FDD9
:1007800020C06E812F3131051CF06623F9F023C0A3
:100790008EE190E0821B930B29853A854B855C8521
:1007A00004C056954795379527958A95D2F76623C5
:1007B000B1F050954095309521953F4F4F4F5F4F89
:1007C0000EC020E030E040E050E009C02FEF3FEFE6
:1007D0004FEF5FE704C020E030E040E050E8B901AF
:1007E000CA012C96E2E00C94090EDF92EF92FF9280
:1007F0000F931F93FC01E480F58006811781D1805F
:100800008081823048F480E090E0A0E1B0E0E82A06
:10081000F92A0A2B1B2BA5C0843009F49FC0823013
:1008200021F4EE24FF24870105C0E114F104010541
:10083000110519F4E0E0F0E096C0628173819FEF4A
:10084000623879070CF05BC022E83FEF261B370BBC
:100850002A3131052CF020E030E040E050E02AC0A1
:10086000B801A701022E04C0769567955795479564
:100870000A94D2F781E090E0A0E0B0E004C0880FD5
:10088000991FAA1FBB1F2A95D2F70197A109B10989
:100890008E219F21A023B1230097A105B10521F04E
:1008A00081E090E0A0E0B0E09A01AB01282B392B69
:1008B0004A2B5B2BDA01C9018F779070A070B07062
:1008C00080349105A105B10539F427FF09C0205CEA
:1008D0003F4F4F4F5F4F04C0215C3F4F4F4F5F4F23
:1008E000E0E0F0E02030A0E03A07A0E04A07A0E412
:1008F0005A0710F0E1E0F0E079018A0127C0603882
:10090000710564F5FB01E158FF4FD801C7018F77EE
:100910009070A070B07080349105A105B10539F4D4
:10092000E7FE0DC080E490E0A0E0B0E004C08FE3FB
:1009300090E0A0E0B0E0E80EF91E0A1F1B1F17FFB1
:1009400005C016950795F794E794319687E01695BC
:100950000795F794E7948A95D1F705C0EE24FF2414
:100960008701EFEFF0E06E2F679566276795902F70
:100970009F77D794DD24D7948E2F8695492F462BC9
:10098000582F5D29B701CA011F910F91FF90EF9079
:10099000DF900895FC01DB01408151812281622FAB
:1009A0006F7770E0221F2227221F9381892F880FE3
:1009B000822B282F30E0991F9927991F11969C931D
:1009C000119721153105A9F54115510561057105ED
:1009D00011F482E037C082E89FEF13969C938E93C8
:1009E00012979A01AB0167E0220F331F441F551F76
:1009F0006A95D1F783E08C930DC0220F331F441FFB
:100A0000551F12968D919C911397019713969C9365
:100A10008E931297203080E0380780E0480780E40A
:100A2000580758F314962D933D934D935C93179765
:100A300008952F3F310579F4411551056105710580
:100A400019F484E08C93089564FF03C081E08C93D3
:100A500012C01C9210C02F57304013963C932E9317
:100A6000129783E08C9387E0440F551F661F771F12
:100A70008A95D1F7706414964D935D936D937C9332
:100A8000179708951F93DC01FB019C91923008F4A5
:100A900047C08081823008F443C0943051F41196ED
:100AA0001C91843099F58181682F70E0611B710978
:100AB0003FC0843021F0923031F48230B9F181812D
:100AC000882389F12DC011961C9111978230F1F085
:100AD00081811817D9F412962D913C911397828138
:100AE00093818217930794F028173907BCF0149666
:100AF0008D919D910D90BC91A02D248135814681D1
:100B00005781281739074A075B0718F4112341F06A
:100B10000AC082179307A407B50740F4112319F000
:100B200061E070E005C06FEF7FEF02C060E070E051
:100B3000CB011F910895DF93CF9300D00F92CDB7D3
:100B4000DEB789836A834B838981843008F054C07F
:100B50008A81883008F050C08B818F3F29F58981C8
:100B6000882F90E0880F991FFC01E859FF4FA08162
:100B7000B1818981882F90E0880F991FFC01E85985
:100B8000FF4F0190F081E02D8081482F8A81282F2E
:100B900030E081E090E0022E02C0880F991F0A9495
:100BA000E2F7842B8C9328C08B81882329F58981D7
:100BB000882F90E0880F991FFC01E859FF4FA08112
:100BC000B1818981882F90E0880F991FFC01E85935
:100BD000FF4F0190F081E02D8081482F8A81282FDE
:100BE00030E081E090E0022E02C0880F991F0A9445
:100BF000E2F7809584238C930F900F900F90CF9104
:100C0000DF910895DF93CF9300D00F92CDB7DEB779
:100C100089836A8389818430F8F48A818830E0F49A
:100C20008981882F90E0880F991FFC01E059FF4FC0
:100C30000190F081E02D8081282F30E08A81882F7B
:100C400090E0A90102C0559547958A95E2F7CA013F
:100C5000582F51705B8302C08FEF8B838B810F9075
:100C60000F900F90CF91DF910895DF93CF9300D035
:100C70000F92CDB7DEB789836A834B838981843035
:100C800008F054C08A81883008F050C08B818F3FB3
:100C900029F58981882F90E0880F991FFC01E85879
:100CA000FF4FA081B1818981882F90E0880F991F23
:100CB000FC01E858FF4F0190F081E02D8081482F22
:100CC0008A81282F30E081E090E0022E02C0880F58
:100CD000991F0A94E2F7842B8C9328C08B81882378
:100CE00029F58981882F90E0880F991FFC01E85829
:100CF000FF4FA081B1818981882F90E0880F991FD3
:100D0000FC01E858FF4F0190F081E02D8081482FD1
:100D10008A81282F30E081E090E0022E02C0880F07
:100D2000991F0A94E2F7809584238C930F900F907B
:100D30000F90CF91DF910895DF93CF9300D0CDB77F
:100D4000DEB789836A838981843068F48981882F3A
:100D500090E0880F991FFC01E859FF4F0190F08146
:100D6000E02D8A8180830F900F90CF91DF910895BD
:100D7000DF93CF9300D0CDB7DEB789836A838981B3
:100D8000843068F48981882F90E0880F991FFC01D6
:100D9000E858FF4F0190F081E02D8A8180830F9009
:100DA0000F90CF91DF910895DF93CF930F92CDB73E
:100DB000DEB789838981882F90E0880F991FFC0115
:100DC000E059FF4F0190F081E02D80810F90CF918D
:100DD000DF910895DF93CF93CDB7DEB782E06FEF59
:100DE0000E949C06CF91DF910895DF93CF93CDB7FA
:100DF000DEB761970FB6F894DEBF0FBECDBF84E6B5
:100E00008F87198AC3C08989882F90E0FC01E05838
:100E1000FF4F908182E0692F40E00E949B05188A75
:100E2000A2C08889882F90E0FC01EC57FF4F908189
:100E300082E0692F0E940206882309F091C0898907
:100E4000482F50E08889282F30E0CA01880F991F69
:100E5000880F991F820F931FFC01E857FF4F808175
:100E60008F878889882F90E0FC01EC57FF4F908195
:100E700082E0692F0E940206882399F380E090E0C7
:100E8000A8E4B2E48B879C87AD87BE876B857C85A1
:100E90008D859E8520E030E04AEF54E40E941702E1
:100EA000DC01CB018F839887A987BA876F8178850A
:100EB00089859A8520E030E040E85FE30E94710375
:100EC00088232CF481E090E09E838D833FC06F8166
:100ED000788589859A8520E03FEF4FE757E40E94A7
:100EE000110318164CF56B857C858D859E8520E059
:100EF00030E040E251E40E941702DC01CB01BC016A
:100F0000CD010E944100DC01CB019E838D830FC087
:100F100088EC90E09C838B838B819C810197F1F717
:100F20009C838B838D819E8101979E838D838D8190
:100F30009E81009769F714C06F81788589859A85AD
:100F40000E944100DC01CB019E838D838D819E81B7
:100F50009A83898389819A810197F1F79A8389839A
:100F600088898F5F888B8889843008F45ACF898973
:100F7000882F90E0FC01E058FF4F908182E0692FBC
:100F80004FEF0E949B0589898F5F898B8989843007
:100F900008F439CF8F8561960FB6F894DEBF0FBE87
:100FA000CDBFCF91DF910895DF93CF93CDB7DEB75B
:100FB000E8970FB6F894DEBF0FBECDBF80E090E09B
:100FC000A0EFB1E48DAB9EABAFABB8AF6DA97EA97E
:100FD0008FA998AD20E030E04AEF54E40E94170258
:100FE000DC01CB0189AB9AABABABBCAB69A97AA9ED
:100FF0008BA99CA920E030E040E85FE30E947103E8
:1010000088232CF481E090E098AB8FA73FC069A9BA
:101010007AA98BA99CA920E03FEF4FE757E40E94F3
:10102000110318164CF56DA97EA98FA998AD20E083
:1010300030E040E251E40E941702DC01CB01BC0128
:10104000CD010E944100DC01CB0198AB8FA70FC0FE
:1010500088EC90E09EA78DA78DA59EA50197F1F73E
:101060009EA78DA78FA598A9019798AB8FA78FA54D
:1010700098A9009769F714C069A97AA98BA99CA9B6
:101080000E944100DC01CB0198AB8FA78FA598A9E6
:101090009CA78BA78BA59CA50197F1F79CA78BA775
:1010A0008CE30E94BB0980E090E0A0E8BFE38FA33F
:1010B00098A7A9A7BAA76FA178A589A59AA520E0A6
:1010C00030E04AEF54E40E941702DC01CB018BA30D
:1010D0009CA3ADA3BEA36BA17CA18DA19EA120E08A
:1010E00030E040E85FE30E94710388232CF481E044
:1010F00090E09AA389A33FC06BA17CA18DA19EA182
:1011000020E03FEF4FE757E40E94110318164CF51B
:101110006FA178A589A59AA520E030E040E251E4CE
:101120000E941702DC01CB01BC01CD010E944100ED
:10113000DC01CB019AA389A30FC088EC90E098A3AF
:101140008F8F8F8D98A10197F1F798A38F8F89A129
:101150009AA101979AA389A389A19AA1009769F7F7
:1011600014C06BA17CA18DA19EA10E944100DC0155
:10117000CB019AA389A389A19AA19E8F8D8F8D8D72
:101180009E8D0197F1F79E8F8D8F8FE00E94BB0996
:1011900080E090E0A0E8BFE3898F9A8FAB8FBC8F8F
:1011A000698D7A8D8B8D9C8D20E030E04AEF54E480
:1011B0000E941702DC01CB018D8B9E8BAF8BB88F09
:1011C0006D897E898F89988D20E030E040E85FE36B
:1011D0000E94710388232CF481E090E09C8B8B8B20
:1011E0003FC06D897E898F89988D20E03FEF4FE762
:1011F00057E40E94110318164CF5698D7A8D8B8D7A
:101200009C8D20E030E040E251E40E941702DC01B6
:10121000CB01BC01CD010E944100DC01CB019C8BC4
:101220008B8B0FC088EC90E09A8B898B89899A8987
:101230000197F1F79A8B898B8B899C8901979C8BFD
:101240008B8B8B899C89009769F714C06D897E8987
:101250008F89988D0E944100DC01CB019C8B8B8B88
:101260008B899C89988B8F878F8598890197F1F757
:10127000988B8F8781E00E94BB0980E090E0A0E01E
:10128000B0E48B879C87AD87BE876B857C858D8519
:101290009E8520E030E04AEF54E40E941702DC0112
:1012A000CB018F839887A987BA876F8178858985D5
:1012B0009A8520E030E040E85FE30E9471038823D4
:1012C0002CF481E090E09E838D833FC06F81788510
:1012D00089859A8520E03FEF4FE757E40E9411038C
:1012E00018164CF56B857C858D859E8520E030E059
:1012F00040E251E40E941702DC01CB01BC01CD01A8
:101300000E944100DC01CB019E838D830FC088ECDD
:1013100090E09C838B838B819C810197F1F79C8368
:101320008B838D819E8101979E838D838D819E818C
:10133000009769F714C06F81788589859A850E9426
:101340004100DC01CB019E838D838D819E819A8338
:10135000898389819A810197F1F79A83898386E04D
:101360000E94BB09E8960FB6F894DEBF0FBECDBF52
:10137000CF91DF910895DF93CF93CDB7DEB72F974D
:101380000FB6F894DEBF0FBECDBF8F8783E060E05D
:1013900040E00E949B0583E061E040E00E949B05E5
:1013A00083E062E04FEF0E949B0580E06F850E9422
:1013B0009C0683E062E040E00E949B0580E090E0B4
:1013C000A0EAB0E48B879C87AD87BE876B857C8560
:1013D0008D859E8520E030E04AEF54E40E9417029C
:1013E000DC01CB018F839887A987BA876F817885C5
:1013F00089859A8520E030E040E85FE30E94710330
:1014000088232CF481E090E09E838D833FC06F8120
:10141000788589859A8520E03FEF4FE757E40E9461
:10142000110318164CF56B857C858D859E8520E013
:1014300030E040E251E40E941702DC01CB01BC0124
:10144000CD010E944100DC01CB019E838D830FC042
:1014500088EC90E09C838B838B819C810197F1F7D2
:101460009C838B838D819E8101979E838D838D814B
:101470009E81009769F714C06F81788589859A8568
:101480000E944100DC01CB019E838D838D819E8172
:101490009A83898389819A810197F1F79A83898355
:1014A00083E062E04FEF0E949B052F960FB6F89401
:1014B000DEBF0FBECDBFCF91DF910895DF93CF93F5
:1014C000CDB7DEB72F970FB6F894DEBF0FBECDBFF6
:1014D0008F8783E060E04FEF0E949B0583E061E02F
:1014E00040E00E949B0583E062E04FEF0E949B0575
:1014F00080E06F850E949C0683E062E040E00E94ED
:101500009B0580E090E0A0EAB0E48B879C87AD87E4
:10151000BE876B857C858D859E8520E030E04AEF17
:1015200054E40E941702DC01CB018F839887A987BE
:10153000BA876F81788589859A8520E030E040E818
:101540005FE30E94710388232CF481E090E09E8386
:101550008D833FC06F81788589859A8520E03FEF34
:101560004FE757E40E94110318164CF56B857C85F4
:101570008D859E8520E030E040E251E40E94170214
:10158000DC01CB01BC01CD010E944100DC01CB019B
:101590009E838D830FC088EC90E09C838B838B812E
:1015A0009C810197F1F79C838B838D819E810197AC
:1015B0009E838D838D819E81009769F714C06F8112
:1015C000788589859A850E944100DC01CB019E8344
:1015D0008D838D819E819A83898389819A810197E8
:1015E000F1F79A83898383E062E04FEF0E949B05C5
:1015F0002F960FB6F894DEBF0FBECDBFCF91DF910F
:101600000895DF93CF9300D00F92CDB7DEB79B83C1
:101610008A838A819B8127E28031920708F485C002
:101620008A819B8120E137E2B9010E94C90DCB017B
:1016300089838981805D0E945E0A8981282F30E03C
:1016400080E197E2A901489F9001499F300D589F82
:10165000300D11248A819B81821B930B9B838A838B
:101660008A819B8128EE33E0B9010E94C90DCB012C
:1016700089838981805D0E945E0A8981282F30E0FC
:1016800088EE93E0A901489F9001499F300D589F33
:10169000300D11248A819B81821B930B9B838A834B
:1016A0008A819B8124E630E0B9010E94C90DCB01FB
:1016B00089838981805D0E945E0A8981282F30E0BC
:1016C00084E690E0A901489F9001499F300D589F02
:1016D000300D11248A819B81821B930B9B838A830B
:1016E0008A819B812AE030E0B9010E94C90DCB01BB
:1016F00089838981805D0E945E0A8981882F90E0BC
:101700009C01220F331FC901880F991F880F991F51
:10171000280F391F8A819B81821B930B9B838A83AD
:101720008A81805D0E945E0AE5C08A819B8153E0C8
:10173000883E950708F465C08A819B8128EE33E0D6
:10174000B9010E94C90DCB0189838981805D0E9406
:101750005E0A8981282F30E088EE93E0A901489F36
:101760009001499F300D589F300D11248A819B8133
:10177000821B930B9B838A838A819B8124E630E0C2
:10178000B9010E94C90DCB0189838981805D0E94C6
:101790005E0A8981282F30E084E690E0A901489F05
:1017A0009001499F300D589F300D11248A819B81F3
:1017B000821B930B9B838A838A819B812AE030E082
:1017C000B9010E94C90DCB0189838981805D0E9486
:1017D0005E0A8981882F90E09C01220F331FC90186
:1017E000880F991F880F991F280F391F8A819B81A5
:1017F000821B930B9B838A838A81805D0E945E0A91
:1018000079C08A819B818436910508F445C08A811C
:101810009B8124E630E0B9010E94C90DCB01898388
:101820008981805D0E945E0A8981282F30E084E6EC
:1018300090E0A901489F9001499F300D589F300DBD
:1018400011248A819B81821B930B9B838A838A81CB
:101850009B812AE030E0B9010E94C90DCB01898348
:101860008981805D0E945E0A8981882F90E09C01B9
:10187000220F331FC901880F991F880F991F280F46
:10188000391F8A819B81821B930B9B838A838A8168
:10189000805D0E945E0A2EC08A819B818A309105FC
:1018A00028F18A819B812AE030E0B9010E94C90DAC
:1018B000CB0189838981805D0E945E0A8981882F9E
:1018C00090E09C01220F331FC901880F991F880FD8
:1018D000991F280F391F8A819B81821B930B9B8341
:1018E0008A838A81805D0E945E0A04C08A81805D4D
:1018F0000E945E0A0F900F900F90CF91DF91089594
:10190000DF93CF93CDB7DEB72A970FB6F894DEBF3B
:101910000FBECDBF82E060E04FEF0E94350682E04F
:1019200061E04FEF0E94350682E062E04FEF0E94D7
:10193000350682E063E04FEF0E94350682E064E006
:1019400040E00E94350682E065E040E00E943506F6
:1019500082E066E040E00E94350682E067E040E019
:101960000E94350680E06FEF0E94B80683E060E0D9
:101970004FEF0E94350683E061E04FEF0E9435068D
:1019800083E062E04FEF0E9435060E94EA060E9463
:10199000D40718861F821E821D821C821B821A8217
:1019A00019820E94F5068A878A858436D1F338C069
:1019B0008C818823D1F48A85882F90E00E94010BC6
:1019C0008E81882F90E09C01220F331FC901880F60
:1019D000991F880F991F820F931F982F8A85890F4F
:1019E0008E830E94F5068A871BC08A85882F90E027
:1019F0000E94010B8D81882F90E09C01220F331FE4
:101A0000C901880F991F880F991F820F931F982F64
:101A10008A85890F8D830E94F5068A8781E08A83F3
:101A20008A858D3099F08A858F3081F08A858A3059
:101A300069F08A858B3051F08A858C3039F08A853F
:101A4000803121F08A85843609F0B2CF81E08C8321
:101A50008A85898789858F3029F48DE30E945E0A03
:101A600081E08B8389858A3031F48BE20E945E0AA3
:101A7000898589832AC089858B3031F48DE20E9463
:101A80005E0A8985898321C089858C3031F48AE298
:101A90000E945E0A8985898318C08985803131F466
:101AA0008FE20E945E0A898589830FC089858D3007
:101AB00061F481E00E94BB091C821B821A82188695
:101AC0001F821E821D82198219868C81882309F447
:101AD00068CF8B81882309F464CF8A81882309F435
:101AE00060CF89818A3059F48E81282F30E08D8132
:101AF000882F90E0820F931F98878F8330C0898151
:101B00008B3069F48E81282F30E08D81882F90E012
:101B1000A901481B590BCA0198878F8320C089816E
:101B20008C3089F48E81282F30E08D81882F90E0D1
:101B3000AC01249FC001259F900D349F900D11246E
:101B400098878F830CC08981803149F48E819D8173
:101B5000692F0E94BD0D882F90E098878F838F8119
:101B600098850E94010B1C821B821A8218861F8294
:101B70001E821D821982198614CF991B79E004C038
:101B8000991F961708F0961B881F7A95C9F78095BC
:101B90000895AA1BBB1B51E107C0AA1FBB1FA617B4
:101BA000B70710F0A61BB70B881F991F5A95A9F706
:101BB00080959095BC01CD0108952F923F924F9250
:101BC0005F926F927F928F929F92AF92BF92CF92CD
:101BD000DF92EF92FF920F931F93CF93DF93CDB7D6
:101BE000DEB7CA1BDB0B0FB6F894DEBF0FBECDBF4E
:101BF00009942A88398848885F846E847D848C841F
:101C00009B84AA84B984C884DF80EE80FD800C8127
:101C10001B81AA81B981CE0FD11D0FB6F894DEBF0A
:0C1C20000FBECDBFED010895F894FFCF7A
:101C2C0000000000000000003B00380035003200CE
:101C3C0039003600330030003A00370034003100F0
:101C4C0000010203040506070704010D0805020044
:081C5C000906030F100C0B0A2E
:00000001FF
